:020000020000FC
:1000000049E0242E47E0342E44E0442E48E0542EAC
:100010004F934EE147BB4F914F934FE741BB4F91F9
:1000200010E005E00F93022D39D002BB4F9342E060
:1000300048BB4F910F911FD00F93032D2FD002BBC0
:100040004F9344E048BB4F910F9115D00F93042D6F
:1000500025D002BB4F9348E048BB4F910F910BD086
:100060000F93052D1BD002BB4F9340E148BB4F912E
:100070000F9101D0D7CF9F938F93802F912F9F9374
:100080008F9307D08F919F910197C9F78F919F917F
:10009000089589EC97E00197F0F70895EF93FF93A7
:1000A000F0E0E2EBE00F08F4F3950491FF91EF919B
:0C00B00008953F065B4F666D7D077F6F73
:00000001FF
