:020000020000FC
:0200000017C027
:1000080000C0060C171C0814190411F4002411244C
:100018000F931F93002D112D96D01F910F91262E0F
:10002800372E482E592E18954EB548604EBD4AE7D2
:100038004BBD42E14ABD49B7406449BF4EB54E7F0A
:100048004EBD4EB54D7F4EBD4EB544604EBD789405
:1000580041E0642E40E0742E48EE842E43E0942E56
:1000680040E0242E40E0342E40E0442E40E0542E60
:100078004F934EE147BB4F914F934FE741BB4F9191
:1000880010E002E00F93022D41D002BB00E04ED0F9
:100098004F93402F48BB4F910F9125D00F93032DBD
:1000A80035D002BB01E042D04F93402F48BB4F915F
:1000B8000F9119D00F93042D29D002BB02E036D03E
:1000C8004F93402F48BB4F910F910DD00F93052DA3
:1000D8001DD002BB03E02AD04F93402F48BB4F915D
:1000E8000F9101D0CFCF9F938F93802F912F9F9304
:1000F8008F9307D08F919F910197C9F78F919F9107
:10010800089589EC97E00197F0F70895EF93FF932E
:10011800F1E0EAE2E00F08F4F3950491FF91EF9122
:1001280008953F065B4F666D7D077F6FEF93FF93E2
:10013800F1E0EAE4E00F08F4F3950491FF91EF9100
:1001480008951008040228EE33E00BD0922F24E61D
:1001580030E007D0822F2AE030E003D0722F602FE2
:1001680008958F939F93882799270217130720F0E4
:10017800021B130B0196F9CF282F392F9F918F91CE
:020188000895D8
:00000001FF
