:020000020000FC
:1000000040E0242E44E0342E46E0442E48E0542EB6
:100010004AE04F934EE147BB4F914F934FE741BBAF
:100020004F9110E00AEF0F93022D45D002BB00E084
:1000300052D04F93402F48BB4F910F9129D00F932F
:10004000032D39D002BB01E046D04F93402F48BB6F
:100050004F910F911DD00F93042D2DD002BB02E0C4
:100060003AD04F93402F48BB4F910F9111D00F932F
:10007000052D21D002BB03E02ED04F93402F48BB6B
:100080004F910F9105D02394241609F42224CBCF4D
:100090009F938F93802F912F9F938F9307D08F9152
:1000A0009F910197C9F78F919F91089589EC97E0EF
:1000B0000197F0F70895EF93FF93F0E0ECECE00F79
:1000C00008F4F3950491FF91EF9108953F065B4F7B
:1000D000666D7D077F6FEF93FF93F0E0ECEEE00F2E
:1000E00008F4F3950491FF91EF910895020408102C
:00000001FF
