:020000020000FC
:1000000040E0242E40E0342E40E0442E40E0542EC8
:100010004AE04F934EE147BB4F914F934FE741BBAF
:100020004F9110E002E00F93022D51D002BB00E08F
:100030005ED04F93402F48BB4F910F9135D00F9317
:10004000032D45D002BB01E052D04F93402F48BB57
:100050004F910F9129D00F93042D39D002BB02E0AC
:1000600046D04F93402F48BB4F910F911DD00F9317
:10007000052D2DD002BB03E03AD04F93402F48BB53
:100080004F910F9111D02394241669F422243394B4
:10009000341649F433244394441629F444245394E5
:1000A000541609F45524BFCF9F938F93802F912F1F
:1000B0009F938F9307D08F919F910197C9F78F914D
:1000C0009F91089589EC97E00197F0F70895EF93D9
:1000D000FF93F0E0E4EEE00F08F4F3950491FF9154
:1000E000EF9108953F065B4F666D7D077F6FEF933D
:1000F000FF93F1E0E4E0E00F08F4F3950491FF9141
:08010000EF91089502040810BC
:00000001FF
