:020000020000FC
:100000004F934EE147BB4F914F934FE741BB4F9109
:100010004F934FE342BB4F9110E005E04F934FE306
:1000200042BB4F914F9342E048BB4F911CD04F933E
:1000300046E042BB4F914F9344E048BB4F9113D0F1
:100040004F934BE542BB4F914F9348E048BB4F91D4
:100050000AD04F934FE442BB4F914F9340E148BBCE
:100060004F9101D0DBCF9F938F93802F912F9F9340
:100070008F9307D08F919F910197C9F78F919F918F
:0C008000089589EC97E00197F0F70895CF
:00000001FF
