:020000020000FC
:1000000040E0242E40E0342E40E0442E40E0542EC8
:100010004F934EE147BB4F914F934FE741BB4F91F9
:1000200010E002E041E0642E40E0742E48EE842EA1
:1000300043E0942E0F93022D53D002BB00E060D01A
:100040004F93402F48BB4F910F9137D00F93032D03
:1000500047D002BB01E054D04F93402F48BB4F9193
:100060000F912BD00F93042D3BD002BB02E048D060
:100070004F93402F48BB4F910F911FD00F93052DE9
:100080002FD002BB03E03CD04F93402F48BB4F9191
:100090000F9113D0060C171C0814190411F4002436
:1000A00011240F931F93002D112D37D01F910F9105
:1000B000262E372E482E592EBDCF9F938F93802FFB
:1000C000912F9F938F9307D08F919F910197C9F79D
:1000D0008F919F91089589EC97E00197F0F708952B
:1000E000EF93FF93F0E0E6EFE00F08F4F39504914F
:1000F000FF91EF9108953F065B4F666D7D077F6F1F
:10010000EF93FF93F1E0E6E1E00F08F4F39504913B
:10011000FF91EF9108950204081028EE33E00BD010
:10012000922F24E630E007D0822F2AE030E003D07F
:10013000722F602F08958F939F9388279927021716
:10014000130720F0021B130B0196F9CF282F392F2C
:060150009F918F910895BC
:00000001FF
