:020000020000FC
:1000000045E0242E43E0342E40E0442E46E0542EBA
:100010004F934EE147BB4F914F934FE741BB4F91F9
:1000200010E005E00F93022D41D002BB00E04ED05E
:100030004F93402F48BB4F910F9125D00F93032D25
:1000400035D002BB01E042D04F93402F48BB4F91C7
:100050000F9119D00F93042D29D002BB02E036D0A6
:100060004F93402F48BB4F910F910DD00F93052D0B
:100070001DD002BB03E02AD04F93402F48BB4F91C5
:100080000F9101D0CFCF9F938F93802F912F9F936C
:100090008F9307D08F919F910197C9F78F919F916F
:1000A000089589EC97E00197F0F70895EF93FF9397
:1000B000F0E0E2ECE00F08F4F3950491FF91EF918A
:1000C00008953F065B4F666D7D077F6FEF93FF934B
:1000D000F0E0E2EEE00F08F4F3950491FF91EF9168
:0600E0000895020408105F
:00000001FF
